:020000040800F2
:10000000784B0020550200085D0200085F020008DE
:100010006102000863020008650200080000000099
:10002000000000000000000000000000BD0100080A
:1000300069020008000000000102000861050008D4
:100040006F0200086F0200086F0200086F020008CC
:100050006F0200086F0200086F0200086F020008BC
:100060006F0200086F0200086F0200086F020008AC
:100070006F0200086F0200086F0200086F0200089C
:100080006F0200086F0200086F0200080000000005
:100090000000000000000000000000006F020008E7
:1000A0006F0200086F0200086F0200086F0200086C
:1000B0006F0200086F0200086F0200086F0200085C
:1000C0006F0200086F0200086F0200086F0200084C
:1000D0006F0200086F0200086F0200086F0200083C
:1000E0006F0200086F0200086F02000800000000A5
:1000F0000000000000000000000000000000000000
:1001000000000000000000000000000000000000EF
:1001100000000000000000006F0200086F020008ED
:1001200000F002F800F03AF80AA090E8000C8244CF
:100130008344AAF10107DA4501D100F02FF8AFF2AC
:10014000090EBAE80F0013F0010F18BFFB1A43F0B5
:1001500001031847880D0000A80D0000103A24BFC5
:1001600078C878C1FAD8520724BF30C830C144BF1C
:1001700004680C607047000000230024002500265E
:10018000103A28BF78C1FBD8520728BF30C148BFFA
:100190000B6070471FB51FBD10B510BD00F07DF896
:1001A0001146FFF7F7FF00F025FA00F09BF803B4C3
:1001B000FFF7F2FF03BC00F0A3F80000224B196820
:1001C0000868B0E8F00F80F30988BFF36F8F4FF035
:1001D000000080F311884EF00D0E70470000000003
:1001E00006480068006880F3088862B661B6BFF30D
:1001F0004F8FBFF36F8F00DF00BF00BF08ED00E03F
:10020000EFF30980BFF36F8F0F4B1A6820E9F00FEF
:10021000106008B54FF0BF0080F31188BFF34F8F17
:10022000BFF36F8F00F0DEFC4FF0000080F3118809
:10023000BDE8084019680868B0E8F00F80F3098845
:10024000BFF36F8F704700BF0C000020EFF30580F5
:10025000704700000948804709480047FEE7FEE76D
:10026000FEE7FEE7FEE7FEE7FEE7FEE7FEE7FEE766
:1002700004480549054A064B7047000095050008EB
:100280002101000878450020784B002078470020A5
:1002900078470020704770477047754600F02CF88B
:1002A000AE4605006946534620F00700854618B063
:1002B00020B5FFF7DDFFBDE820404FF000064FF00E
:1002C00000074FF000084FF0000B21F00701AC468B
:1002D000ACE8C009ACE8C009ACE8C009ACE8C009AA
:1002E0008D46704710B50446AFF300802046BDE848
:1002F0001040FFF75CBF0000004870471445002025
:1003000001491820ABBEFEE72600020070472DE928
:10031000F04102460025002600200023002400278B
:1003200091F803C00CF00F0591F803C00CF0100C0D
:10033000BCF1000F03D091F802C04CEA050591F81A
:1003400000C0BCF1000F31D0146800202BE04FF04A
:10035000010C0CFA00F3B1F800C00CEA03069E424F
:1003600020D183004FF00F0C0CFA03F7BC4305FAC1
:1003700003FC4CEA040491F803C0BCF1280F06D139
:100380004FF0010C0CFA00FCC2F814C00AE091F81E
:1003900003C0BCF1480F05D14FF0010C0CFA00FC72
:1003A000C2F810C0401C0828D1D31460B1F800C0B6
:1003B000BCF1FF0F34DD546800202EE000F1080C82
:1003C0004FF0010808FA0CF3B1F800C00CEA03067C
:1003D0009E4221D183004FF00F0C0CFA03F7BC436F
:1003E00005FA03FC4CEA040491F803C0BCF1280FA1
:1003F00005D100F1080C08FA0CF8C2F8148091F845
:1004000003C0BCF1480F07D100F1080C4FF0010800
:1004100008FA0CF8C2F81080401C0828CED35460AB
:10042000BDE8F081416170470161704708B54FF444
:100430000050ADF8000010208DF8030002208DF868
:1004400002000121102000F007F869460148FFF77B
:100450005EFF08BD0010014029B1064A92690243BF
:10046000044B9A6104E0034A92698243014B9A610A
:10047000704700000010024010B500F001F810BDF8
:100480000CB50020019000903348006840F48030A3
:100490003149086000BF3048006800F40030009027
:1004A0000198401C0190009818B90198B0F5A06F10
:1004B000F1D12948006800F4003010B1012000900B
:1004C00001E0002000900098012843D123480068F3
:1004D00040F01000214908600846006820F0030041
:1004E00008600846006840F0020008601A4840684A
:1004F000194948600846406848600846406840F42A
:10050000806048600846406820F47C1048600846D7
:10051000406840F4E81048600846006840F0807089
:10052000086000BF0C48006800F000700028F9D097
:100530000948406820F003000749486008464068C1
:1005400040F00200486000BF0348406800F00C0023
:100550000828F9D10CBD0000001002400020024024
:1005600010B500BFBF2080F31188BFF34F8FBFF3DA
:100570006F8F00BF00F0B0FB18B14FF080500449FE
:10058000086000BF002080F3118800BF10BD00008C
:1005900004ED00E010B51348006840F00100114977
:1005A000086008464068104908400E4948600846FF
:1005B00000680E4908400B4908600846006820F4AE
:1005C000802008600846406820F4FE0048604FF430
:1005D0001F008860FFF750FF4FF00060044908607B
:1005E00010BD0000001002400000FFF8FFFFF6FE03
:1005F00008ED00E01CB5FFF719FF002001210346BC
:100600002022CDE9001009A10A4800F035FB0020A6
:10061000012103462022CDE9001007A1084800F07F
:100620002BFB00F0A1FA00201CBD00004C45445FEC
:100630004F4E0000450B00084C45445F4F464600B6
:10064000210B00082DE9F04105460E461C480768BD
:100650001C480068001D00F0CFF950B91948006827
:1006600090F82C10012088401749096881431648EA
:100670000160681C38B936B112480168091D134879
:1006800000F0F8F91AE07C190E4800684460BC429A
:1006900007D20C480168091D0D48006800F0D0F928
:1006A0000CE008480168091D0A48006800F0C8F914
:1006B00009480068844201D207480460BDE8F0811F
:1006C000200000200C000020240000200045002015
:1006D00014000020100000203C00002010B504464B
:1006E00000F0D4F923480068401C224908602248E1
:1006F000006840B9204804600846006801280DD110
:1007000000F0CEF80AE01D48006838B91A480068C1
:10071000C06AE16A884201D8174804601848006836
:10072000401C1749086094F82C1001208840154996
:100730000968084313490860E16A01EB8101124A24
:1007400002EB8100211D00F095F900F0B1F90B4892
:10075000006868B108480068C06AE16A884207D248
:100760004FF0805009490860BFF34F8FBFF36F8F80
:1007700010BD00001C0000200C00002028000020FC
:1007800038000020240000204C44002004ED00E04C
:1007900010B516E000F07AF90C48C068C468201D56
:1007A00000F02AF90A480068401E09490860094813
:1007B0000068401E0749086000F07AF9204600F002
:1007C0000BF8044800680028E4D110BDEC44002078
:1007D0001C0000201800002010B50446206B00F01B
:1007E00077F9204600F074F910BD000000BFFFF754
:1007F000CFFF064800680128F9D94FF0805004491E
:100800000860BFF34F8FBFF36F8FF0E74C440020B9
:1008100004ED00E02DE9FF5F80460E469146DDE9DC
:100820000E7A109CA9F10100216B01EB800B2BF0DB
:10083000070B86B1002507E0715D04F134004155D6
:10084000705D00B902E06D1C102DF5D300BF0021D2
:100850004320015502E0002084F83400052F00D326
:100860000427E762201D00F0E8F804F1180000F00A
:10087000E4F82461C7F10500A061646200206064AF
:1008800084F8480041465846039A00F0A3F82060D7
:10089000BAF1000F01D0CAF80040BDE8FF9F000088
:1008A00010B5002407E004EB84010F4A02EB81003D
:1008B00000F0B6F8641C052CF5D30C4800F0B0F835
:1008C0000B4800F0ADF80B4800F0AAF80A4800F019
:1008D000A7F80A4800F0A4F8044809490860044849
:1008E0000849086010BD00004C440020B0440020BE
:1008F000C4440020D8440020EC44002000450020DF
:10090000100000201400002009480068006808B9A1
:10091000012000E0002020B14FF0FF3005490860C1
:1009200005E003480068C068006802490860704735
:10093000100000203C00002000BFBF2080F3118881
:10094000BFF34F8FBFF36F8F00BF00BFFEE7000004
:1009500070B50446002504F0070068B104F00700F4
:10096000C0F108002044A04205D904F00700C0F1FE
:100970000800044400E0002400F02CF9124800684C
:1009800020B9124820F007000F490860BCB1104898
:100990000068204444F2F831884210D20C480068C4
:1009A00020440B490968884209D90748006808496A
:1009B000096845180648006820440549086000F0A9
:1009C00019FA284670BD00000400002054000020E1
:1009D00000000020001F4FF080730360001F21F013
:1009E00001030360001F034B0360143802602038CA
:1009F000704700003909000801460A69D1E9013051
:100A00009860D1E9010358605068884201D1886834
:100A10005060002008611068401E10601068704728
:100A200000F1080141604FF0FF31816000F10801E1
:100A3000C1600161002101607047002101617047C0
:100A400010B502460B685C1C0CB9106907E002F196
:100A5000080000E04068446824689C42FAD9446871
:100A60004C604C68A160886041600A611468641C35
:100A7000146010BD42684A6093688B609368596047
:100A80009160086103685B1C0360704700BFBF2072
:100A900080F31188BFF34F8FBFF36F8F00BF034800
:100AA0000068401C014908607047000008000020F1
:100AB00006480068401E054908600846006820B9DD
:100AC000002080F3118800BF00BF7047080000209D
:100AD0007047000000204FF0E02108618861024863
:100AE00048610720086170473F19010070B504464E
:100AF000002544B100F06EF800212046FFF7A2FD6A
:100B000000F078F905463DB94FF080500349086080
:100B1000BFF34F8FBFF36F8F70BD000004ED00E097
:100B20000CE04FF4FA60FFF7E1FF4FF40051044886
:100B3000FFF77AFC4FF47A70FFF7D8FFF1E7000077
:100B4000001001400CE04FF47A70FFF7CFFF4FF434
:100B500000510448FFF766FC4FF4FA60FFF7C6FF48
:100B6000F1E70000001001401CB5124800210B46BF
:100B70008022CDE9001010A1114800F07DF8044654
:100B8000012C14D100BFBF2080F31188BFF34F8F19
:100B9000BFF36F8F00BF4FF0FF300A49086001209C
:100BA0000949086000200949086000F04BF808482E
:100BB00000681CBD4000002049444C450000000076
:100BC000ED0700083C000020280000202000002045
:100BD0004400002002480068401C0149086070473A
:100BE000480000201248006818B10120114908602F
:100BF0001DE000200F4908600F480068B0FA80F03F
:100C0000C0F11F0101EB81020C4B03EB8200426833
:100C10005268426000F108024368934202D1426880
:100C2000526842604268D268054B1A6000BF704744
:100C30004800002030000020240000204C44002008
:100C40000C00002010B50A48006840F47F000849F5
:100C500008600846006840F07F400860FFF73AFFF0
:100C6000002004490860FFF7BBFA002010BD000017
:100C700020ED00E0080000202DE9FF4F85B0804600
:100C800089461746DDE912ABB800FFF761FE06465C
:100C900056B14C20FFF75CFE04460CB1266304E01D
:100CA0003046FFF715FF00E000247CB10020CDE9BD
:100CB00000ABCDE902403A4649464046089BFFF763
:100CC000A9FD2046FFF70AFD012501E04FF0FF35A1
:100CD000284609B0BDE8F08F2DE9F04100273A48D9
:100CE0000068002867D139480068451C374805600E
:100CF0008DB93748D0F8008036480068344908601C
:100D00003448C0F8008034480068401C324908600C
:100D1000FFF7FAFD00BF3148006885423BD300BFB2
:100D20002B480068006808B9012000E0002020B1CD
:100D30004FF0FF30294908602CE025480068C06862
:100D4000C4686668B54202D22448066022E0201DCD
:100D5000FFF752FEA06A18B104F11800FFF74CFE2D
:100D600094F82C10012088401D49096808431C494B
:100D70000860E16A01EB81011A4A02EB8100211D42
:100D8000FFF778FE1849E06A0968C96A8842C7D344
:100D90000127C5E700BF14480068C06A00EB800067
:100DA000104951F82000012800D901270F48006898
:100DB00000B1012704E00E480068401C0C4908609F
:100DC0003846BDE8F08100004800002020000020E7
:100DD0001000002014000020340000203C000020FF
:100DE000240000204C4400200C0000203000002093
:100DF0002C00002070B500240026FFF747FE2E4887
:100E00000068401E2C4908600846006800284FD141
:100E10002A48006800284BD024E02948C068C468EC
:100E200004F11800FFF7E8FD201DFFF7E5FD94F839
:100E30002C10012088402349096808432149086093
:100E4000E16A01EB8101204A02EB8100211DFFF7DD
:100E500011FE1E49E06A0968C96A884202D301206E
:100E60001B4908601648006808B9012000E000200E
:100E70000028D2D00CB1FFF747FD1648056865B1D0
:100E800000BFFFF729FF10B10120114908606D1E56
:100E9000002DF6D100200F4908600D48006838B1D8
:100EA000012630070C490860BFF34F8FBFF36F8FE7
:100EB000FFF7FEFD304670BD480000201C000020FA
:100EC000D8440020240000204C4400200C000020C6
:100ED000300000202C00002004ED00E0FC0E000893
:100EE000000000204C0000005C010008480F0008D2
:100EF0004C0000202C4B000078010008000000008E
:100F000000000000AAAAAAAA000000000000000039
:100F100000000000000000000000000000000000D1
:100F200000000000000000000000000000000000C1
:100F300000000000000000000000000000000000B1
:080F40000400000000000000A5
:040000050800025598
:00000001FF
